{
  "transactions": [
    {
      "hash": "0x91264d99327f39d44becd38be91d4aad2774a06c9e235e7cfb742e70ba39ae5b",
      "transactionType": "CREATE",
      "contractName": "OwnedMulticaller",
      "contractAddress": "0x8975923D01132bEB6c412F827f63D44712726E13",
      "function": null,
      "arguments": [
        "0x0F68eDBE14C8f68481771016d7E2871d6a35DE11"
      ],
      "transaction": {
        "type": "0x00",
        "from": "0x0f68edbe14c8f68481771016d7e2871d6a35de11",
        "gas": "0xc82b5",
        "value": "0x0",
        "data": "0x608060405234801561001057600080fd5b50604051610b16380380610b1683398101604081905261002f916100f1565b610038336100a1565b6001600160a01b0381166100925760405162461bcd60e51b815260206004820152601660248201527f6f776e65725f203d3d2061646472657373283078302900000000000000000000604482015260640160405180910390fd5b61009b816100a1565b50610121565b600080546001600160a01b038381166001600160a01b0319831681178455604051919092169283917f8be0079c531659141344cd1fd0a4f28419497f9722a3daafe3b4186f6b6457e09190a35050565b60006020828403121561010357600080fd5b81516001600160a01b038116811461011a57600080fd5b9392505050565b6109e6806101306000396000f3fe6080604052600436106100555760003560e01c8063281818291461005a578063387451801461008457806341c0e1b5146100a6578063715018a6146100bb5780638da5cb5b146100d0578063f2fde38b146100f8575b600080fd5b61006d610068366004610618565b610118565b60405161007b9291906106b2565b60405180910390f35b34801561009057600080fd5b506100a461009f3660046107a6565b610372565b005b3480156100b257600080fd5b506100a4610463565b3480156100c757600080fd5b506100a461046e565b3480156100dc57600080fd5b506000546040516001600160a01b03909116815260200161007b565b34801561010457600080fd5b506100a4610113366004610857565b610482565b6060806101236104fb565b868514801561013157508683145b6101735760405162461bcd60e51b815260206004820152600e60248201526d0d2dcecc2d8d2c840d8cadccee8d60931b60448201526064015b60405180910390fd5b8667ffffffffffffffff81111561018c5761018c61087b565b6040519080825280602002602001820160405280156101b5578160200160208202803683370190505b5091508667ffffffffffffffff8111156101d1576101d161087b565b60405190808252806020026020018201604052801561020457816020015b60608152602001906001900390816101ef5790505b50905060005b878110156103665788888281811061022457610224610891565b90506020020160208101906102399190610857565b6001600160a01b031685858381811061025457610254610891565b9050602002013588888481811061026d5761026d610891565b905060200281019061027f91906108a7565b60405161028d9291906108ee565b60006040518083038185875af1925050503d80600081146102ca576040519150601f19603f3d011682016040523d82523d6000602084013e6102cf565b606091505b508483815181106102e2576102e2610891565b602002602001018484815181106102fb576102fb610891565b602002602001018290528215151515815250505061035682828151811061032457610324610891565b602002602001015184838151811061033e5761033e610891565b6020026020010151151561055590919063ffffffff16565b61035f816108fe565b905061020a565b50965096945050505050565b61037a6104fb565b60005b8181101561045857886001600160a01b0316630570891f898585858181106103a7576103a7610891565b90506020028101906103b991906108a7565b8b8a8a888181106103cc576103cc610891565b90506020020160208101906103e19190610857565b8c6040518763ffffffff1660e01b815260040161040396959493929190610925565b60408051808303816000875af1158015610421573d6000803e3d6000fd5b505050506040513d601f19601f820116820180604052508101906104459190610982565b505080610451906108fe565b905061037d565b505050505050505050565b61046b6104fb565b33ff5b6104766104fb565b610480600061057c565b565b61048a6104fb565b6001600160a01b0381166104ef5760405162461bcd60e51b815260206004820152602660248201527f4f776e61626c653a206e6577206f776e657220697320746865207a65726f206160448201526564647265737360d01b606482015260840161016a565b6104f88161057c565b50565b6000546001600160a01b031633146104805760405162461bcd60e51b815260206004820181905260248201527f4f776e61626c653a2063616c6c6572206973206e6f7420746865206f776e6572604482015260640161016a565b816105785780518015610569578060208301fd5b5063350c20f16000526004601cfd5b5050565b600080546001600160a01b038381166001600160a01b0319831681178455604051919092169283917f8be0079c531659141344cd1fd0a4f28419497f9722a3daafe3b4186f6b6457e09190a35050565b60008083601f8401126105de57600080fd5b50813567ffffffffffffffff8111156105f657600080fd5b6020830191508360208260051b850101111561061157600080fd5b9250929050565b6000806000806000806060878903121561063157600080fd5b863567ffffffffffffffff8082111561064957600080fd5b6106558a838b016105cc565b9098509650602089013591508082111561066e57600080fd5b61067a8a838b016105cc565b9096509450604089013591508082111561069357600080fd5b506106a089828a016105cc565b979a9699509497509295939492505050565b604080825283519082018190526000906020906060840190828701845b828110156106ed5781511515845292840192908401906001016106cf565b50505083810382850152845180825282820190600581901b8301840187850160005b8381101561076c57601f19808785030186528251805180865260005b81811015610746578281018b01518782018c01528a0161072b565b5060008682018b015296890196601f01909116909301870192509086019060010161070f565b50909998505050505050505050565b6001600160a01b03811681146104f857600080fd5b67ffffffffffffffff811681146104f857600080fd5b60008060008060008060008060c0898b0312156107c257600080fd5b88356107cd8161077b565b97506020890135965060408901356107e48161077b565b955060608901356107f481610790565b9450608089013567ffffffffffffffff8082111561081157600080fd5b61081d8c838d016105cc565b909650945060a08b013591508082111561083657600080fd5b506108438b828c016105cc565b999c989b5096995094979396929594505050565b60006020828403121561086957600080fd5b81356108748161077b565b9392505050565b634e487b7160e01b600052604160045260246000fd5b634e487b7160e01b600052603260045260246000fd5b6000808335601e198436030181126108be57600080fd5b83018035915067ffffffffffffffff8211156108d957600080fd5b60200191503681900382131561061157600080fd5b8183823760009101908152919050565b60006001820161091e57634e487b7160e01b600052601160045260246000fd5b5060010190565b86815260a060208201528460a0820152848660c0830137600060c08683018101919091526001600160a01b03948516604083015292909316606084015267ffffffffffffffff166080830152601f909201601f1916010192915050565b6000806040838503121561099557600080fd5b82516109a081610790565b602093909301519294929350505056fea264697066735822122012bd3f094f885f140be9c6457fdeaec77d126758f41b77d9fe178dbec6cf7fb664736f6c634300081500330000000000000000000000000f68edbe14c8f68481771016d7e2871d6a35de11",
        "nonce": "0x11e"
      },
      "additionalContracts": [],
      "isFixedGasLimit": false
    },
    {
      "hash": "0xdf4b61134f30642ed4fc4ac7bd7ff3bc8530c8b64fbd4d479a31ff2528db4316",
      "transactionType": "CALL",
      "contractName": null,
      "contractAddress": "0x67C409DaB0EE741A1B1Be874bd1333234cfDBF44",
      "function": null,
      "arguments": null,
      "transaction": {
        "type": "0x00",
        "from": "0x0f68edbe14c8f68481771016d7e2871d6a35de11",
        "to": "0x67c409dab0ee741a1b1be874bd1333234cfdbf44",
        "gas": "0x11021",
        "value": "0x0",
        "data": "0xa22cb4650000000000000000000000008975923d01132beb6c412f827f63d44712726e130000000000000000000000000000000000000000000000000000000000000001",
        "nonce": "0x11f"
      },
      "additionalContracts": [],
      "isFixedGasLimit": false
    },
    {
      "hash": "0x166427df5ba10151a86af19d975d160e3c41e64c7253f4658914d25c57842bed",
      "transactionType": "CALL",
      "contractName": "OwnedMulticaller",
      "contractAddress": "0x8975923D01132bEB6c412F827f63D44712726E13",
      "function": "multiMint(address,uint256,address,uint64,address[],string[])",
      "arguments": [
        "0x67C409DaB0EE741A1B1Be874bd1333234cfDBF44",
        "84316718148691062097763301062091587921872078571554862844431317764698029807240",
        "0xadb077d236d9E81fB24b96AE9cb8089aB9942d48",
        "31536000",
        "[0xB5409d8117B69bE3b983485188DCB6966570F366]",
        "[duke]"
      ],
      "transaction": {
        "type": "0x00",
        "from": "0x0f68edbe14c8f68481771016d7e2871d6a35de11",
        "to": "0x8975923d01132beb6c412f827f63d44712726e13",
        "gas": "0x64ae8",
        "value": "0x0",
        "data": "0x3874518000000000000000000000000067c409dab0ee741a1b1be874bd1333234cfdbf44ba69923fa107dbf5a25a073a10b7c9216ae39fbadc95dc891d460d9ae315d688000000000000000000000000adb077d236d9e81fb24b96ae9cb8089ab9942d480000000000000000000000000000000000000000000000000000000001e1338000000000000000000000000000000000000000000000000000000000000000c000000000000000000000000000000000000000000000000000000000000001000000000000000000000000000000000000000000000000000000000000000001000000000000000000000000b5409d8117b69be3b983485188dcb6966570f36600000000000000000000000000000000000000000000000000000000000000010000000000000000000000000000000000000000000000000000000000000020000000000000000000000000000000000000000000000000000000000000000464756b6500000000000000000000000000000000000000000000000000000000",
        "nonce": "0x120"
      },
      "additionalContracts": [],
      "isFixedGasLimit": false
    },
    {
      "hash": "0x5eea51074ffd3cb71e1ede9008376019776ec88e803107610e16c9b50fc9bd1c",
      "transactionType": "CALL",
      "contractName": "OwnedMulticaller",
      "contractAddress": "0x8975923D01132bEB6c412F827f63D44712726E13",
      "function": "multiMint(address,uint256,address,uint64,address[],string[])",
      "arguments": [
        "0x67C409DaB0EE741A1B1Be874bd1333234cfDBF44",
        "84316718148691062097763301062091587921872078571554862844431317764698029807240",
        "0xadb077d236d9E81fB24b96AE9cb8089aB9942d48",
        "31536000",
        "[0xbF99983f7f2b87169E80D33C8EF74a0437558B97, 0xbF99983f7f2b87169E80D33C8EF74a0437558B97, 0xbF99983f7f2b87169E80D33C8EF74a0437558B97, 0xbF99983f7f2b87169E80D33C8EF74a0437558B97, 0xbF99983f7f2b87169E80D33C8EF74a0437558B97, 0xd115A29BDf33f6DB712Dc514721fbFa9b522505c, 0xd115A29BDf33f6DB712Dc514721fbFa9b522505c]",
        "[rnstesting1, rnstesting2, rnstesting3, rnstesting4, rnstesting5, rnstesting9, rnstesting10]"
      ],
      "transaction": {
        "type": "0x00",
        "from": "0x0f68edbe14c8f68481771016d7e2871d6a35de11",
        "to": "0x8975923d01132beb6c412f827f63d44712726e13",
        "gas": "0x27d7c6",
        "value": "0x0",
        "data": "0x3874518000000000000000000000000067c409dab0ee741a1b1be874bd1333234cfdbf44ba69923fa107dbf5a25a073a10b7c9216ae39fbadc95dc891d460d9ae315d688000000000000000000000000adb077d236d9e81fb24b96ae9cb8089ab9942d480000000000000000000000000000000000000000000000000000000001e1338000000000000000000000000000000000000000000000000000000000000000c000000000000000000000000000000000000000000000000000000000000001c00000000000000000000000000000000000000000000000000000000000000007000000000000000000000000bf99983f7f2b87169e80d33c8ef74a0437558b97000000000000000000000000bf99983f7f2b87169e80d33c8ef74a0437558b97000000000000000000000000bf99983f7f2b87169e80d33c8ef74a0437558b97000000000000000000000000bf99983f7f2b87169e80d33c8ef74a0437558b97000000000000000000000000bf99983f7f2b87169e80d33c8ef74a0437558b97000000000000000000000000d115a29bdf33f6db712dc514721fbfa9b522505c000000000000000000000000d115a29bdf33f6db712dc514721fbfa9b522505c000000000000000000000000000000000000000000000000000000000000000700000000000000000000000000000000000000000000000000000000000000e00000000000000000000000000000000000000000000000000000000000000120000000000000000000000000000000000000000000000000000000000000016000000000000000000000000000000000000000000000000000000000000001a000000000000000000000000000000000000000000000000000000000000001e000000000000000000000000000000000000000000000000000000000000002200000000000000000000000000000000000000000000000000000000000000260000000000000000000000000000000000000000000000000000000000000000b726e7374657374696e6731000000000000000000000000000000000000000000000000000000000000000000000000000000000000000000000000000000000b726e7374657374696e6732000000000000000000000000000000000000000000000000000000000000000000000000000000000000000000000000000000000b726e7374657374696e6733000000000000000000000000000000000000000000000000000000000000000000000000000000000000000000000000000000000b726e7374657374696e6734000000000000000000000000000000000000000000000000000000000000000000000000000000000000000000000000000000000b726e7374657374696e6735000000000000000000000000000000000000000000000000000000000000000000000000000000000000000000000000000000000b726e7374657374696e6739000000000000000000000000000000000000000000000000000000000000000000000000000000000000000000000000000000000c726e7374657374696e6731300000000000000000000000000000000000000000",
        "nonce": "0x121"
      },
      "additionalContracts": [],
      "isFixedGasLimit": false
    }
  ],
  "receipts": [
    {
      "transactionHash": "0x91264d99327f39d44becd38be91d4aad2774a06c9e235e7cfb742e70ba39ae5b",
      "transactionIndex": "0x1",
      "blockHash": "0x160561abc5b31039e910db9ff5b4aa23418d3c04f8306567549c093f905f31f6",
      "blockNumber": "0x1bd264e",
      "from": "0x0F68eDBE14C8f68481771016d7E2871d6a35DE11",
      "to": null,
      "cumulativeGasUsed": "0x18b1d5",
      "gasUsed": "0x99f9f",
      "contractAddress": "0x8975923D01132bEB6c412F827f63D44712726E13",
      "logs": [
        {
          "address": "0x8975923D01132bEB6c412F827f63D44712726E13",
          "topics": [
            "0x8be0079c531659141344cd1fd0a4f28419497f9722a3daafe3b4186f6b6457e0",
            "0x0000000000000000000000000000000000000000000000000000000000000000",
            "0x0000000000000000000000000f68edbe14c8f68481771016d7e2871d6a35de11"
          ],
          "data": "0x",
          "blockHash": "0x160561abc5b31039e910db9ff5b4aa23418d3c04f8306567549c093f905f31f6",
          "blockNumber": "0x1bd264e",
          "transactionHash": "0x91264d99327f39d44becd38be91d4aad2774a06c9e235e7cfb742e70ba39ae5b",
          "transactionIndex": "0x1",
          "logIndex": "0x0",
          "removed": false
        },
        {
          "address": "0x8975923D01132bEB6c412F827f63D44712726E13",
          "topics": [
            "0x8be0079c531659141344cd1fd0a4f28419497f9722a3daafe3b4186f6b6457e0",
            "0x0000000000000000000000000f68edbe14c8f68481771016d7e2871d6a35de11",
            "0x0000000000000000000000000f68edbe14c8f68481771016d7e2871d6a35de11"
          ],
          "data": "0x",
          "blockHash": "0x160561abc5b31039e910db9ff5b4aa23418d3c04f8306567549c093f905f31f6",
          "blockNumber": "0x1bd264e",
          "transactionHash": "0x91264d99327f39d44becd38be91d4aad2774a06c9e235e7cfb742e70ba39ae5b",
          "transactionIndex": "0x1",
          "logIndex": "0x1",
          "removed": false
        }
      ],
      "status": "0x1",
      "logsBloom": "0x00000000000000000000000000000000000000000000000000800000000000000000000000000000000000000000000000000000000000000000000000000000000000000000000000000000000000000001000000100000000000000000000000000000020000000000000000000800000000000000000000000000000000400000000000000000000000000000000000000000000000010000000000000000000000000000000000000000000000000000000000000000000000000000000000000000000000000000000000000000000000000000000000000800000020000000000000000000000001000000000000000004000000000000000000000000",
      "type": "0x0",
      "effectiveGasPrice": "0x4a817c800"
    },
    {
      "transactionHash": "0xdf4b61134f30642ed4fc4ac7bd7ff3bc8530c8b64fbd4d479a31ff2528db4316",
      "transactionIndex": "0x2",
      "blockHash": "0x160561abc5b31039e910db9ff5b4aa23418d3c04f8306567549c093f905f31f6",
      "blockNumber": "0x1bd264e",
      "from": "0x0F68eDBE14C8f68481771016d7E2871d6a35DE11",
      "to": "0x67C409DaB0EE741A1B1Be874bd1333234cfDBF44",
      "cumulativeGasUsed": "0x196be8",
      "gasUsed": "0xba13",
      "contractAddress": null,
      "logs": [
        {
          "address": "0x67C409DaB0EE741A1B1Be874bd1333234cfDBF44",
          "topics": [
            "0x17307eab39ab6107e8899845ad3d59bd9653f200f220920489ca2b5937696c31",
            "0x0000000000000000000000000f68edbe14c8f68481771016d7e2871d6a35de11",
            "0x0000000000000000000000008975923d01132beb6c412f827f63d44712726e13"
          ],
          "data": "0x0000000000000000000000000000000000000000000000000000000000000001",
          "blockHash": "0x160561abc5b31039e910db9ff5b4aa23418d3c04f8306567549c093f905f31f6",
          "blockNumber": "0x1bd264e",
          "transactionHash": "0xdf4b61134f30642ed4fc4ac7bd7ff3bc8530c8b64fbd4d479a31ff2528db4316",
          "transactionIndex": "0x2",
          "logIndex": "0x2",
          "removed": false
        }
      ],
      "status": "0x1",
      "logsBloom": "0x00000000000000000000000000000000000000000000000000000000000000000000000000000000000000000000000000000000000000000000000000000000000000000000000000000000000000000000000000000000000000000000000002000000000000000000000000000000000000002000000000000000000000001000000000000000000000000000000000000000000000000000000000000000000000000000000020000000080000000000000000000000000000000000000000000000000000000000000000000000000000000000000000010800000000000000200800000000000001000000000000000004000000000400000000000000",
      "type": "0x0",
      "effectiveGasPrice": "0x4a817c800"
    },
    {
      "transactionHash": "0x166427df5ba10151a86af19d975d160e3c41e64c7253f4658914d25c57842bed",
      "transactionIndex": "0x3",
      "blockHash": "0x160561abc5b31039e910db9ff5b4aa23418d3c04f8306567549c093f905f31f6",
      "blockNumber": "0x1bd264e",
      "from": "0x0F68eDBE14C8f68481771016d7E2871d6a35DE11",
      "to": "0x8975923D01132bEB6c412F827f63D44712726E13",
      "cumulativeGasUsed": "0x1dfa2d",
      "gasUsed": "0x48e45",
      "contractAddress": null,
      "logs": [
        {
          "address": "0x67C409DaB0EE741A1B1Be874bd1333234cfDBF44",
          "topics": [
            "0xcc2c68164f9f7f0c063ba98bcf89498c0f3f5e3acc32bf4ab46195ecb489c13b",
            "0x4467e296cabb66ee07d345db56cf81360336f0e6eafb97957d0c2ab9082adbd3",
            "0x0000000000000000000000000000000000000000000000000000000000000001"
          ],
          "data": "0x",
          "blockHash": "0x160561abc5b31039e910db9ff5b4aa23418d3c04f8306567549c093f905f31f6",
          "blockNumber": "0x1bd264e",
          "transactionHash": "0x166427df5ba10151a86af19d975d160e3c41e64c7253f4658914d25c57842bed",
          "transactionIndex": "0x3",
          "logIndex": "0x3",
          "removed": false
        },
        {
          "address": "0x67C409DaB0EE741A1B1Be874bd1333234cfDBF44",
          "topics": [
            "0xddf252ad1be2c89b69c2b068fc378daa952ba7f163c4a11628f55a4df523b3ef",
            "0x0000000000000000000000000000000000000000000000000000000000000000",
            "0x000000000000000000000000b5409d8117b69be3b983485188dcb6966570f366",
            "0x4467e296cabb66ee07d345db56cf81360336f0e6eafb97957d0c2ab9082adbd3"
          ],
          "data": "0x",
          "blockHash": "0x160561abc5b31039e910db9ff5b4aa23418d3c04f8306567549c093f905f31f6",
          "blockNumber": "0x1bd264e",
          "transactionHash": "0x166427df5ba10151a86af19d975d160e3c41e64c7253f4658914d25c57842bed",
          "transactionIndex": "0x3",
          "logIndex": "0x4",
          "removed": false
        },
        {
          "address": "0x67C409DaB0EE741A1B1Be874bd1333234cfDBF44",
          "topics": [
            "0x1c440effe366cd7c439a4890f8be2342fcaca9b4a192ce8cf2b0e76511b36eba",
            "0x4467e296cabb66ee07d345db56cf81360336f0e6eafb97957d0c2ab9082adbd3"
          ],
          "data": "0xffffffffffffffffffffffffffffffffffffffffffffffffffffffffffffffff000000000000000000000000000000000000000000000000000000000000004000000000000000000000000000000000000000000000000000000000000000a0000000000000000000000000adb077d236d9e81fb24b96ae9cb8089ab9942d48000000000000000000000000b5409d8117b69be3b983485188dcb6966570f36600000000000000000000000000000000000000000000000000000000672b2fed00000000000000000000000000000000000000000000000000000000000000000000000000000000000000000000000000000000000000000000000000000002ba69923fa107dbf5a25a073a10b7c9216ae39fbadc95dc891d460d9ae315d6880000000000000000000000000000000000000000000000000000000000000060000000000000000000000000000000000000000000000000000000000000000464756b6500000000000000000000000000000000000000000000000000000000",
          "blockHash": "0x160561abc5b31039e910db9ff5b4aa23418d3c04f8306567549c093f905f31f6",
          "blockNumber": "0x1bd264e",
          "transactionHash": "0x166427df5ba10151a86af19d975d160e3c41e64c7253f4658914d25c57842bed",
          "transactionIndex": "0x3",
          "logIndex": "0x5",
          "removed": false
        }
      ],
      "status": "0x1",
      "logsBloom": "0x00000000000000400000000000000000000000000000000000000000000000008000000000000000000000000000000000000000000000000000000000040000000000000000000008000008001000000000000000040000000000000000000000000000020000000000000000002800000000002000000000000010000000000000000000000000000000000000000000010000000000000000080000000000000000000000000000000000080000000000000000000000000000000000000000080002000000000000400000000100000000000000000000010000000060000000000000000000000000000000000000008000000000000000000000000000",
      "type": "0x0",
      "effectiveGasPrice": "0x4a817c800"
    },
    {
      "transactionHash": "0x5eea51074ffd3cb71e1ede9008376019776ec88e803107610e16c9b50fc9bd1c",
      "transactionIndex": "0x4",
      "blockHash": "0x160561abc5b31039e910db9ff5b4aa23418d3c04f8306567549c093f905f31f6",
      "blockNumber": "0x1bd264e",
      "from": "0x0F68eDBE14C8f68481771016d7E2871d6a35DE11",
      "to": "0x8975923D01132bEB6c412F827f63D44712726E13",
      "cumulativeGasUsed": "0x3ad2a1",
      "gasUsed": "0x1cd874",
      "contractAddress": null,
      "logs": [
        {
          "address": "0x67C409DaB0EE741A1B1Be874bd1333234cfDBF44",
          "topics": [
            "0xcc2c68164f9f7f0c063ba98bcf89498c0f3f5e3acc32bf4ab46195ecb489c13b",
            "0xd372c6faeb9e61d7a55911359aa4520fc80c01d85349ea194f4960885c41819e",
            "0x0000000000000000000000000000000000000000000000000000000000000001"
          ],
          "data": "0x",
          "blockHash": "0x160561abc5b31039e910db9ff5b4aa23418d3c04f8306567549c093f905f31f6",
          "blockNumber": "0x1bd264e",
          "transactionHash": "0x5eea51074ffd3cb71e1ede9008376019776ec88e803107610e16c9b50fc9bd1c",
          "transactionIndex": "0x4",
          "logIndex": "0x6",
          "removed": false
        },
        {
          "address": "0x67C409DaB0EE741A1B1Be874bd1333234cfDBF44",
          "topics": [
            "0xddf252ad1be2c89b69c2b068fc378daa952ba7f163c4a11628f55a4df523b3ef",
            "0x0000000000000000000000000000000000000000000000000000000000000000",
            "0x000000000000000000000000bf99983f7f2b87169e80d33c8ef74a0437558b97",
            "0xd372c6faeb9e61d7a55911359aa4520fc80c01d85349ea194f4960885c41819e"
          ],
          "data": "0x",
          "blockHash": "0x160561abc5b31039e910db9ff5b4aa23418d3c04f8306567549c093f905f31f6",
          "blockNumber": "0x1bd264e",
          "transactionHash": "0x5eea51074ffd3cb71e1ede9008376019776ec88e803107610e16c9b50fc9bd1c",
          "transactionIndex": "0x4",
          "logIndex": "0x7",
          "removed": false
        },
        {
          "address": "0x67C409DaB0EE741A1B1Be874bd1333234cfDBF44",
          "topics": [
            "0x1c440effe366cd7c439a4890f8be2342fcaca9b4a192ce8cf2b0e76511b36eba",
            "0xd372c6faeb9e61d7a55911359aa4520fc80c01d85349ea194f4960885c41819e"
          ],
          "data": "0xffffffffffffffffffffffffffffffffffffffffffffffffffffffffffffffff000000000000000000000000000000000000000000000000000000000000004000000000000000000000000000000000000000000000000000000000000000a0000000000000000000000000adb077d236d9e81fb24b96ae9cb8089ab9942d48000000000000000000000000bf99983f7f2b87169e80d33c8ef74a0437558b9700000000000000000000000000000000000000000000000000000000672b2fed00000000000000000000000000000000000000000000000000000000000000000000000000000000000000000000000000000000000000000000000000000002ba69923fa107dbf5a25a073a10b7c9216ae39fbadc95dc891d460d9ae315d6880000000000000000000000000000000000000000000000000000000000000060000000000000000000000000000000000000000000000000000000000000000b726e7374657374696e6731000000000000000000000000000000000000000000",
          "blockHash": "0x160561abc5b31039e910db9ff5b4aa23418d3c04f8306567549c093f905f31f6",
          "blockNumber": "0x1bd264e",
          "transactionHash": "0x5eea51074ffd3cb71e1ede9008376019776ec88e803107610e16c9b50fc9bd1c",
          "transactionIndex": "0x4",
          "logIndex": "0x8",
          "removed": false
        },
        {
          "address": "0x67C409DaB0EE741A1B1Be874bd1333234cfDBF44",
          "topics": [
            "0xcc2c68164f9f7f0c063ba98bcf89498c0f3f5e3acc32bf4ab46195ecb489c13b",
            "0xd4a50aa7505251ba81fcb8330ffc51f681c14dc8543ac0968a415df19da18b89",
            "0x0000000000000000000000000000000000000000000000000000000000000001"
          ],
          "data": "0x",
          "blockHash": "0x160561abc5b31039e910db9ff5b4aa23418d3c04f8306567549c093f905f31f6",
          "blockNumber": "0x1bd264e",
          "transactionHash": "0x5eea51074ffd3cb71e1ede9008376019776ec88e803107610e16c9b50fc9bd1c",
          "transactionIndex": "0x4",
          "logIndex": "0x9",
          "removed": false
        },
        {
          "address": "0x67C409DaB0EE741A1B1Be874bd1333234cfDBF44",
          "topics": [
            "0xddf252ad1be2c89b69c2b068fc378daa952ba7f163c4a11628f55a4df523b3ef",
            "0x0000000000000000000000000000000000000000000000000000000000000000",
            "0x000000000000000000000000bf99983f7f2b87169e80d33c8ef74a0437558b97",
            "0xd4a50aa7505251ba81fcb8330ffc51f681c14dc8543ac0968a415df19da18b89"
          ],
          "data": "0x",
          "blockHash": "0x160561abc5b31039e910db9ff5b4aa23418d3c04f8306567549c093f905f31f6",
          "blockNumber": "0x1bd264e",
          "transactionHash": "0x5eea51074ffd3cb71e1ede9008376019776ec88e803107610e16c9b50fc9bd1c",
          "transactionIndex": "0x4",
          "logIndex": "0xa",
          "removed": false
        },
        {
          "address": "0x67C409DaB0EE741A1B1Be874bd1333234cfDBF44",
          "topics": [
            "0x1c440effe366cd7c439a4890f8be2342fcaca9b4a192ce8cf2b0e76511b36eba",
            "0xd4a50aa7505251ba81fcb8330ffc51f681c14dc8543ac0968a415df19da18b89"
          ],
          "data": "0xffffffffffffffffffffffffffffffffffffffffffffffffffffffffffffffff000000000000000000000000000000000000000000000000000000000000004000000000000000000000000000000000000000000000000000000000000000a0000000000000000000000000adb077d236d9e81fb24b96ae9cb8089ab9942d48000000000000000000000000bf99983f7f2b87169e80d33c8ef74a0437558b9700000000000000000000000000000000000000000000000000000000672b2fed00000000000000000000000000000000000000000000000000000000000000000000000000000000000000000000000000000000000000000000000000000002ba69923fa107dbf5a25a073a10b7c9216ae39fbadc95dc891d460d9ae315d6880000000000000000000000000000000000000000000000000000000000000060000000000000000000000000000000000000000000000000000000000000000b726e7374657374696e6732000000000000000000000000000000000000000000",
          "blockHash": "0x160561abc5b31039e910db9ff5b4aa23418d3c04f8306567549c093f905f31f6",
          "blockNumber": "0x1bd264e",
          "transactionHash": "0x5eea51074ffd3cb71e1ede9008376019776ec88e803107610e16c9b50fc9bd1c",
          "transactionIndex": "0x4",
          "logIndex": "0xb",
          "removed": false
        },
        {
          "address": "0x67C409DaB0EE741A1B1Be874bd1333234cfDBF44",
          "topics": [
            "0xcc2c68164f9f7f0c063ba98bcf89498c0f3f5e3acc32bf4ab46195ecb489c13b",
            "0xbb6d83128c8d1ba5c9789238d58f3b18168b7bae91cb1c1f4274511758502915",
            "0x0000000000000000000000000000000000000000000000000000000000000001"
          ],
          "data": "0x",
          "blockHash": "0x160561abc5b31039e910db9ff5b4aa23418d3c04f8306567549c093f905f31f6",
          "blockNumber": "0x1bd264e",
          "transactionHash": "0x5eea51074ffd3cb71e1ede9008376019776ec88e803107610e16c9b50fc9bd1c",
          "transactionIndex": "0x4",
          "logIndex": "0xc",
          "removed": false
        },
        {
          "address": "0x67C409DaB0EE741A1B1Be874bd1333234cfDBF44",
          "topics": [
            "0xddf252ad1be2c89b69c2b068fc378daa952ba7f163c4a11628f55a4df523b3ef",
            "0x0000000000000000000000000000000000000000000000000000000000000000",
            "0x000000000000000000000000bf99983f7f2b87169e80d33c8ef74a0437558b97",
            "0xbb6d83128c8d1ba5c9789238d58f3b18168b7bae91cb1c1f4274511758502915"
          ],
          "data": "0x",
          "blockHash": "0x160561abc5b31039e910db9ff5b4aa23418d3c04f8306567549c093f905f31f6",
          "blockNumber": "0x1bd264e",
          "transactionHash": "0x5eea51074ffd3cb71e1ede9008376019776ec88e803107610e16c9b50fc9bd1c",
          "transactionIndex": "0x4",
          "logIndex": "0xd",
          "removed": false
        },
        {
          "address": "0x67C409DaB0EE741A1B1Be874bd1333234cfDBF44",
          "topics": [
            "0x1c440effe366cd7c439a4890f8be2342fcaca9b4a192ce8cf2b0e76511b36eba",
            "0xbb6d83128c8d1ba5c9789238d58f3b18168b7bae91cb1c1f4274511758502915"
          ],
          "data": "0xffffffffffffffffffffffffffffffffffffffffffffffffffffffffffffffff000000000000000000000000000000000000000000000000000000000000004000000000000000000000000000000000000000000000000000000000000000a0000000000000000000000000adb077d236d9e81fb24b96ae9cb8089ab9942d48000000000000000000000000bf99983f7f2b87169e80d33c8ef74a0437558b9700000000000000000000000000000000000000000000000000000000672b2fed00000000000000000000000000000000000000000000000000000000000000000000000000000000000000000000000000000000000000000000000000000002ba69923fa107dbf5a25a073a10b7c9216ae39fbadc95dc891d460d9ae315d6880000000000000000000000000000000000000000000000000000000000000060000000000000000000000000000000000000000000000000000000000000000b726e7374657374696e6733000000000000000000000000000000000000000000",
          "blockHash": "0x160561abc5b31039e910db9ff5b4aa23418d3c04f8306567549c093f905f31f6",
          "blockNumber": "0x1bd264e",
          "transactionHash": "0x5eea51074ffd3cb71e1ede9008376019776ec88e803107610e16c9b50fc9bd1c",
          "transactionIndex": "0x4",
          "logIndex": "0xe",
          "removed": false
        },
        {
          "address": "0x67C409DaB0EE741A1B1Be874bd1333234cfDBF44",
          "topics": [
            "0xcc2c68164f9f7f0c063ba98bcf89498c0f3f5e3acc32bf4ab46195ecb489c13b",
            "0xad398b6cd88eb445302d554a226307e888c5166e1925b1c9ce5836bb1d66ed78",
            "0x0000000000000000000000000000000000000000000000000000000000000001"
          ],
          "data": "0x",
          "blockHash": "0x160561abc5b31039e910db9ff5b4aa23418d3c04f8306567549c093f905f31f6",
          "blockNumber": "0x1bd264e",
          "transactionHash": "0x5eea51074ffd3cb71e1ede9008376019776ec88e803107610e16c9b50fc9bd1c",
          "transactionIndex": "0x4",
          "logIndex": "0xf",
          "removed": false
        },
        {
          "address": "0x67C409DaB0EE741A1B1Be874bd1333234cfDBF44",
          "topics": [
            "0xddf252ad1be2c89b69c2b068fc378daa952ba7f163c4a11628f55a4df523b3ef",
            "0x0000000000000000000000000000000000000000000000000000000000000000",
            "0x000000000000000000000000bf99983f7f2b87169e80d33c8ef74a0437558b97",
            "0xad398b6cd88eb445302d554a226307e888c5166e1925b1c9ce5836bb1d66ed78"
          ],
          "data": "0x",
          "blockHash": "0x160561abc5b31039e910db9ff5b4aa23418d3c04f8306567549c093f905f31f6",
          "blockNumber": "0x1bd264e",
          "transactionHash": "0x5eea51074ffd3cb71e1ede9008376019776ec88e803107610e16c9b50fc9bd1c",
          "transactionIndex": "0x4",
          "logIndex": "0x10",
          "removed": false
        },
        {
          "address": "0x67C409DaB0EE741A1B1Be874bd1333234cfDBF44",
          "topics": [
            "0x1c440effe366cd7c439a4890f8be2342fcaca9b4a192ce8cf2b0e76511b36eba",
            "0xad398b6cd88eb445302d554a226307e888c5166e1925b1c9ce5836bb1d66ed78"
          ],
          "data": "0xffffffffffffffffffffffffffffffffffffffffffffffffffffffffffffffff000000000000000000000000000000000000000000000000000000000000004000000000000000000000000000000000000000000000000000000000000000a0000000000000000000000000adb077d236d9e81fb24b96ae9cb8089ab9942d48000000000000000000000000bf99983f7f2b87169e80d33c8ef74a0437558b9700000000000000000000000000000000000000000000000000000000672b2fed00000000000000000000000000000000000000000000000000000000000000000000000000000000000000000000000000000000000000000000000000000002ba69923fa107dbf5a25a073a10b7c9216ae39fbadc95dc891d460d9ae315d6880000000000000000000000000000000000000000000000000000000000000060000000000000000000000000000000000000000000000000000000000000000b726e7374657374696e6734000000000000000000000000000000000000000000",
          "blockHash": "0x160561abc5b31039e910db9ff5b4aa23418d3c04f8306567549c093f905f31f6",
          "blockNumber": "0x1bd264e",
          "transactionHash": "0x5eea51074ffd3cb71e1ede9008376019776ec88e803107610e16c9b50fc9bd1c",
          "transactionIndex": "0x4",
          "logIndex": "0x11",
          "removed": false
        },
        {
          "address": "0x67C409DaB0EE741A1B1Be874bd1333234cfDBF44",
          "topics": [
            "0xcc2c68164f9f7f0c063ba98bcf89498c0f3f5e3acc32bf4ab46195ecb489c13b",
            "0x5b791db014a42cf9d7be6a8e3577af69d0e41bd3965849694629d5eec89ec843",
            "0x0000000000000000000000000000000000000000000000000000000000000001"
          ],
          "data": "0x",
          "blockHash": "0x160561abc5b31039e910db9ff5b4aa23418d3c04f8306567549c093f905f31f6",
          "blockNumber": "0x1bd264e",
          "transactionHash": "0x5eea51074ffd3cb71e1ede9008376019776ec88e803107610e16c9b50fc9bd1c",
          "transactionIndex": "0x4",
          "logIndex": "0x12",
          "removed": false
        },
        {
          "address": "0x67C409DaB0EE741A1B1Be874bd1333234cfDBF44",
          "topics": [
            "0xddf252ad1be2c89b69c2b068fc378daa952ba7f163c4a11628f55a4df523b3ef",
            "0x0000000000000000000000000000000000000000000000000000000000000000",
            "0x000000000000000000000000bf99983f7f2b87169e80d33c8ef74a0437558b97",
            "0x5b791db014a42cf9d7be6a8e3577af69d0e41bd3965849694629d5eec89ec843"
          ],
          "data": "0x",
          "blockHash": "0x160561abc5b31039e910db9ff5b4aa23418d3c04f8306567549c093f905f31f6",
          "blockNumber": "0x1bd264e",
          "transactionHash": "0x5eea51074ffd3cb71e1ede9008376019776ec88e803107610e16c9b50fc9bd1c",
          "transactionIndex": "0x4",
          "logIndex": "0x13",
          "removed": false
        },
        {
          "address": "0x67C409DaB0EE741A1B1Be874bd1333234cfDBF44",
          "topics": [
            "0x1c440effe366cd7c439a4890f8be2342fcaca9b4a192ce8cf2b0e76511b36eba",
            "0x5b791db014a42cf9d7be6a8e3577af69d0e41bd3965849694629d5eec89ec843"
          ],
          "data": "0xffffffffffffffffffffffffffffffffffffffffffffffffffffffffffffffff000000000000000000000000000000000000000000000000000000000000004000000000000000000000000000000000000000000000000000000000000000a0000000000000000000000000adb077d236d9e81fb24b96ae9cb8089ab9942d48000000000000000000000000bf99983f7f2b87169e80d33c8ef74a0437558b9700000000000000000000000000000000000000000000000000000000672b2fed00000000000000000000000000000000000000000000000000000000000000000000000000000000000000000000000000000000000000000000000000000002ba69923fa107dbf5a25a073a10b7c9216ae39fbadc95dc891d460d9ae315d6880000000000000000000000000000000000000000000000000000000000000060000000000000000000000000000000000000000000000000000000000000000b726e7374657374696e6735000000000000000000000000000000000000000000",
          "blockHash": "0x160561abc5b31039e910db9ff5b4aa23418d3c04f8306567549c093f905f31f6",
          "blockNumber": "0x1bd264e",
          "transactionHash": "0x5eea51074ffd3cb71e1ede9008376019776ec88e803107610e16c9b50fc9bd1c",
          "transactionIndex": "0x4",
          "logIndex": "0x14",
          "removed": false
        },
        {
          "address": "0x67C409DaB0EE741A1B1Be874bd1333234cfDBF44",
          "topics": [
            "0xcc2c68164f9f7f0c063ba98bcf89498c0f3f5e3acc32bf4ab46195ecb489c13b",
            "0xe787d233604a62dccc4d49abdd081f51d39b8014f3f1880d2e69237209cdafb7",
            "0x0000000000000000000000000000000000000000000000000000000000000001"
          ],
          "data": "0x",
          "blockHash": "0x160561abc5b31039e910db9ff5b4aa23418d3c04f8306567549c093f905f31f6",
          "blockNumber": "0x1bd264e",
          "transactionHash": "0x5eea51074ffd3cb71e1ede9008376019776ec88e803107610e16c9b50fc9bd1c",
          "transactionIndex": "0x4",
          "logIndex": "0x15",
          "removed": false
        },
        {
          "address": "0x67C409DaB0EE741A1B1Be874bd1333234cfDBF44",
          "topics": [
            "0xddf252ad1be2c89b69c2b068fc378daa952ba7f163c4a11628f55a4df523b3ef",
            "0x0000000000000000000000000000000000000000000000000000000000000000",
            "0x000000000000000000000000d115a29bdf33f6db712dc514721fbfa9b522505c",
            "0xe787d233604a62dccc4d49abdd081f51d39b8014f3f1880d2e69237209cdafb7"
          ],
          "data": "0x",
          "blockHash": "0x160561abc5b31039e910db9ff5b4aa23418d3c04f8306567549c093f905f31f6",
          "blockNumber": "0x1bd264e",
          "transactionHash": "0x5eea51074ffd3cb71e1ede9008376019776ec88e803107610e16c9b50fc9bd1c",
          "transactionIndex": "0x4",
          "logIndex": "0x16",
          "removed": false
        },
        {
          "address": "0x67C409DaB0EE741A1B1Be874bd1333234cfDBF44",
          "topics": [
            "0x1c440effe366cd7c439a4890f8be2342fcaca9b4a192ce8cf2b0e76511b36eba",
            "0xe787d233604a62dccc4d49abdd081f51d39b8014f3f1880d2e69237209cdafb7"
          ],
          "data": "0xffffffffffffffffffffffffffffffffffffffffffffffffffffffffffffffff000000000000000000000000000000000000000000000000000000000000004000000000000000000000000000000000000000000000000000000000000000a0000000000000000000000000adb077d236d9e81fb24b96ae9cb8089ab9942d48000000000000000000000000d115a29bdf33f6db712dc514721fbfa9b522505c00000000000000000000000000000000000000000000000000000000672b2fed00000000000000000000000000000000000000000000000000000000000000000000000000000000000000000000000000000000000000000000000000000002ba69923fa107dbf5a25a073a10b7c9216ae39fbadc95dc891d460d9ae315d6880000000000000000000000000000000000000000000000000000000000000060000000000000000000000000000000000000000000000000000000000000000b726e7374657374696e6739000000000000000000000000000000000000000000",
          "blockHash": "0x160561abc5b31039e910db9ff5b4aa23418d3c04f8306567549c093f905f31f6",
          "blockNumber": "0x1bd264e",
          "transactionHash": "0x5eea51074ffd3cb71e1ede9008376019776ec88e803107610e16c9b50fc9bd1c",
          "transactionIndex": "0x4",
          "logIndex": "0x17",
          "removed": false
        },
        {
          "address": "0x67C409DaB0EE741A1B1Be874bd1333234cfDBF44",
          "topics": [
            "0xcc2c68164f9f7f0c063ba98bcf89498c0f3f5e3acc32bf4ab46195ecb489c13b",
            "0xe057d5916011bc73a68ee2253c7340666ad64be8038200e6094a70c02f800100",
            "0x0000000000000000000000000000000000000000000000000000000000000001"
          ],
          "data": "0x",
          "blockHash": "0x160561abc5b31039e910db9ff5b4aa23418d3c04f8306567549c093f905f31f6",
          "blockNumber": "0x1bd264e",
          "transactionHash": "0x5eea51074ffd3cb71e1ede9008376019776ec88e803107610e16c9b50fc9bd1c",
          "transactionIndex": "0x4",
          "logIndex": "0x18",
          "removed": false
        },
        {
          "address": "0x67C409DaB0EE741A1B1Be874bd1333234cfDBF44",
          "topics": [
            "0xddf252ad1be2c89b69c2b068fc378daa952ba7f163c4a11628f55a4df523b3ef",
            "0x0000000000000000000000000000000000000000000000000000000000000000",
            "0x000000000000000000000000d115a29bdf33f6db712dc514721fbfa9b522505c",
            "0xe057d5916011bc73a68ee2253c7340666ad64be8038200e6094a70c02f800100"
          ],
          "data": "0x",
          "blockHash": "0x160561abc5b31039e910db9ff5b4aa23418d3c04f8306567549c093f905f31f6",
          "blockNumber": "0x1bd264e",
          "transactionHash": "0x5eea51074ffd3cb71e1ede9008376019776ec88e803107610e16c9b50fc9bd1c",
          "transactionIndex": "0x4",
          "logIndex": "0x19",
          "removed": false
        },
        {
          "address": "0x67C409DaB0EE741A1B1Be874bd1333234cfDBF44",
          "topics": [
            "0x1c440effe366cd7c439a4890f8be2342fcaca9b4a192ce8cf2b0e76511b36eba",
            "0xe057d5916011bc73a68ee2253c7340666ad64be8038200e6094a70c02f800100"
          ],
          "data": "0xffffffffffffffffffffffffffffffffffffffffffffffffffffffffffffffff000000000000000000000000000000000000000000000000000000000000004000000000000000000000000000000000000000000000000000000000000000a0000000000000000000000000adb077d236d9e81fb24b96ae9cb8089ab9942d48000000000000000000000000d115a29bdf33f6db712dc514721fbfa9b522505c00000000000000000000000000000000000000000000000000000000672b2fed00000000000000000000000000000000000000000000000000000000000000000000000000000000000000000000000000000000000000000000000000000002ba69923fa107dbf5a25a073a10b7c9216ae39fbadc95dc891d460d9ae315d6880000000000000000000000000000000000000000000000000000000000000060000000000000000000000000000000000000000000000000000000000000000c726e7374657374696e6731300000000000000000000000000000000000000000",
          "blockHash": "0x160561abc5b31039e910db9ff5b4aa23418d3c04f8306567549c093f905f31f6",
          "blockNumber": "0x1bd264e",
          "transactionHash": "0x5eea51074ffd3cb71e1ede9008376019776ec88e803107610e16c9b50fc9bd1c",
          "transactionIndex": "0x4",
          "logIndex": "0x1a",
          "removed": false
        }
      ],
      "status": "0x1",
      "logsBloom": "0x00000000000000400200000000000004200000000000800000000001000000008000000000000000000000000200000008000400004000000000000000040000000000010020000000000008001000000000002000141000000000000000000040000000020000000000000000080802008000002000000000000410000000000000000000000000000000000000000000000000000000000000080000000000000000000000000000000000080000000000000000000000000000000000000000000002000000000000080000000000000000000000020000010400080060000000000000000000000400000000008000008000001000800000000000000000",
      "type": "0x0",
      "effectiveGasPrice": "0x4a817c800"
    }
  ],
  "libraries": [],
  "pending": [],
  "returns": {},
  "timestamp": 1699347567,
  "chain": 2020,
  "multi": false,
  "commit": "2757885"
}